{
    "contractName": "AssembleContract",
    "abi": [
        {
            "inputs": [
                {
                    "internalType": "address[]",
                    "name": "assetStorageAddrList_",
                    "type": "address[]"
                }
            ],
            "stateMutability": "nonpayable",
            "type": "constructor"
        },
        {
            "inputs": [
                {
                    "internalType": "address",
                    "name": "storageAddr_",
                    "type": "address"
                }
            ],
            "name": "addStorage",
            "outputs": [
                {
                    "internalType": "uint256",
                    "name": "",
                    "type": "uint256"
                }
            ],
            "stateMutability": "nonpayable",
            "type": "function"
        },
        {
            "inputs": [
                {
                    "internalType": "uint256[]",
                    "name": "attrs_",
                    "type": "uint256[]"
                }
            ],
            "name": "getImage",
            "outputs": [
                {
                    "internalType": "string",
                    "name": "",
                    "type": "string"
                }
            ],
            "stateMutability": "view",
            "type": "function"
        },
        {
            "inputs": [],
            "name": "getStorageCount",
            "outputs": [
                {
                    "internalType": "uint256",
                    "name": "",
                    "type": "uint256"
                }
            ],
            "stateMutability": "view",
            "type": "function"
        }
    ],
    "bytecode": "60806040523480156200001157600080fd5b5060405162000e3838038062000e3883398101604081905262000034916200015e565b60005b815181101562000084576200006e8282815181106200005a576200005a62000285565b60200260200101516200008c60201b60201c565b50806200007b8162000251565b91505062000037565b5050620002b1565b604080518082019091526001600160a01b03808316808352602083019081526000805460018181018355828052945160029091027f290decd9548b62a8d60345a988386fc84ba6bc95484008f6362f93160ef3e563810180549286166001600160a01b031993841617905592517f290decd9548b62a8d60345a988386fc84ba6bc95484008f6362f93160ef3e564909301805493909416921691909117909155805490916200013b9162000237565b92915050565b80516001600160a01b03811681146200015957600080fd5b919050565b600060208083850312156200017257600080fd5b82516001600160401b03808211156200018a57600080fd5b818501915085601f8301126200019f57600080fd5b815181811115620001b457620001b46200029b565b8060051b604051601f19603f83011681018181108582111715620001dc57620001dc6200029b565b604052828152858101935084860182860187018a1015620001fc57600080fd5b600095505b838610156200022a57620002158162000141565b85526001959095019493860193860162000201565b5098975050505050505050565b6000828210156200024c576200024c6200026f565b500390565b60006000198214156200026857620002686200026f565b5060010190565b634e487b7160e01b600052601160045260246000fd5b634e487b7160e01b600052603260045260246000fd5b634e487b7160e01b600052604160045260246000fd5b610b7780620002c16000396000f3fe608060405234801561001057600080fd5b50600436106100415760003560e01c806309abb4f41461004657806370059d5f1461006c578063aea69a7c14610074575b600080fd5b610059610054366004610330565b610094565b6040519081526020015b60405180910390f35b600054610059565b61008761008236600461036d565b61016c565b6040516100639190610994565b6040805180820190915273ffffffffffffffffffffffffffffffffffffffff808316808352602083019081526000805460018181018355828052945160029091027f290decd9548b62a8d60345a988386fc84ba6bc95484008f6362f93160ef3e563810180549286167fffffffffffffffffffffffff000000000000000000000000000000000000000093841617905592517f290decd9548b62a8d60345a988386fc84ba6bc95484008f6362f93160ef3e5649093018054939094169216919091179091558054909161016691610a34565b92915050565b604080516020808201835260008252915160609261018c918391016104fb565b604051602081830303815290604052905060005b83518110156102e95781600082815481106101bd576101bd610ae3565b906000526020600020906002020160010160009054906101000a900473ffffffffffffffffffffffffffffffffffffffff1673ffffffffffffffffffffffffffffffffffffffff1663eac8f5b886848151811061021c5761021c610ae3565b60200260200101516040518263ffffffff1660e01b815260040161024291815260200190565b60006040518083038186803b15801561025a57600080fd5b505afa15801561026e573d6000803e3d6000fd5b505050506040513d6000823e601f3d9081017fffffffffffffffffffffffffffffffffffffffffffffffffffffffffffffffe01682016040526102b4919081019061041a565b6040516020016102c59291906104cc565b604051602081830303815290604052915080806102e190610a7b565b9150506101a0565b50806040516020016102fb9190610953565b604080517fffffffffffffffffffffffffffffffffffffffffffffffffffffffffffffffe08184030181529190529392505050565b60006020828403121561034257600080fd5b813573ffffffffffffffffffffffffffffffffffffffff8116811461036657600080fd5b9392505050565b6000602080838503121561038057600080fd5b823567ffffffffffffffff8082111561039857600080fd5b818501915085601f8301126103ac57600080fd5b8135818111156103be576103be610b12565b8060051b91506103cf8483016109e5565b8181528481019084860184860187018a10156103ea57600080fd5b600095505b8386101561040d5780358352600195909501949186019186016103ef565b5098975050505050505050565b60006020828403121561042c57600080fd5b815167ffffffffffffffff8082111561044457600080fd5b818401915084601f83011261045857600080fd5b81518181111561046a5761046a610b12565b61049b60207fffffffffffffffffffffffffffffffffffffffffffffffffffffffffffffffe0601f840116016109e5565b91508082528560208285010111156104b257600080fd5b6104c3816020840160208601610a4b565b50949350505050565b600083516104de818460208801610a4b565b8351908301906104f2818360208801610a4b565b01949350505050565b6000825161050d818460208701610a4b565b7f3c3f786d6c2076657273696f6e3d22312e302220656e636f64696e673d2255549201918252507f462d3822207374616e64616c6f6e653d226e6f223f3e3c73766720786d6c6e7360208201527f3a64633d22687474703a2f2f7075726c2e6f72672f64632f656c656d656e747360408201527f2f312e312f2220786d6c6e733a63633d22687474703a2f2f7765622e7265736f60608201527f757263652e6f72672f63632f2220786d6c6e733a7264663d22687474703a2f2f60808201527f7777772e77332e6f72672f313939392f30322f32322d7264662d73796e74617860a08201527f2d6e73232220786d6c6e733a7376673d22687474703a2f2f7777772e77332e6f60c08201527f72672f323030302f7376672220786d6c6e733d22687474703a2f2f7777772e7760e08201527f332e6f72672f323030302f7376672220786d6c6e733a786c696e6b3d226874746101008201527f703a2f2f7777772e77332e6f72672f313939392f786c696e6b2220786d6c6e736101208201527f3a736f6469706f64693d22687474703a2f2f736f6469706f64692e736f7572636101408201527f65666f7267652e6e65742f4454442f736f6469706f64692d302e6474642220786101608201527f6d6c6e733a696e6b73636170653d22687474703a2f2f7777772e696e6b7363616101808201527f70652e6f72672f6e616d657370616365732f696e6b73636170652220776964746101a08201527f683d223139303122206865696768743d2231303138222076696577426f783d226101c08201527f30203020313930312031303138222069643d22737667322220736f6469706f646101e08201527f693a76657273696f6e3d22302e33322220696e6b73636170653a76657273696f6102008201527f6e3d22302e34342b646576656c222076657273696f6e3d22312e302220736f646102208201527f69706f64693a646f63626173653d222f686f6d652f642f696e6b2f696e6b73636102408201527f6170652f73686172652f6578616d706c65732220736f6469706f64693a646f636102608201527f6e616d653d2267616c6c6172646f2e7376677a2220696e6b73636170653a65786102808201527f706f72742d66696c656e616d653d22433a446f63756d656e747320616e6420536102a08201527f657474696e67734d69636861656c474d7920446f63756d656e74734d792050696102c08201527f63747572657367616c6c6172646f2e706e672220696e6b73636170653a6578706102e08201527f6f72742d786470693d2239302220696e6b73636170653a6578706f72742d79646103008201527f70693d2239302220696e6b73636170653a6f75747075745f657874656e73696f6103208201527f6e3d226f72672e696e6b73636170652e6f75747075742e7376677a2e696e6b736103408201527f636170652220736f6469706f64693a6d6f6469666965643d2274727565223e0061036082015261037f01919050565b60008251610965818460208701610a4b565b7f3c2f7376673e0000000000000000000000000000000000000000000000000000920191825250600601919050565b60208152600082518060208401526109b3816040850160208701610a4b565b601f017fffffffffffffffffffffffffffffffffffffffffffffffffffffffffffffffe0169190910160400192915050565b604051601f82017fffffffffffffffffffffffffffffffffffffffffffffffffffffffffffffffe016810167ffffffffffffffff81118282101715610a2c57610a2c610b12565b604052919050565b600082821015610a4657610a46610ab4565b500390565b60005b83811015610a66578181015183820152602001610a4e565b83811115610a75576000848401525b50505050565b60007fffffffffffffffffffffffffffffffffffffffffffffffffffffffffffffffff821415610aad57610aad610ab4565b5060010190565b7f4e487b7100000000000000000000000000000000000000000000000000000000600052601160045260246000fd5b7f4e487b7100000000000000000000000000000000000000000000000000000000600052603260045260246000fd5b7f4e487b7100000000000000000000000000000000000000000000000000000000600052604160045260246000fdfea2646970667358221220ae79de8e0815f8bfc67b2c8a9d5db30e077046ccf3479d2f49616698e640f67564736f6c63430008070033",
    "sourcePath": "/Users/soohanpark/dev/projects/expandable-onchain-SVG-image-storage/Contract/AssembleContract.sol",
    "compiler": {
        "name": "solc",
        "version": "0.8.7+commit.e28d00a7"
    },
    "functionHashes": {
        "addStorage(address)": "09abb4f4",
        "getImage(uint256[])": "aea69a7c",
        "getStorageCount()": "70059d5f"
    },
    "gasEstimates": {
        "creation": {
            "codeDepositCost": "587000",
            "executionCost": "infinite",
            "totalCost": "infinite"
        },
        "external": {
            "addStorage(address)": "75280",
            "getImage(uint256[])": "infinite",
            "getStorageCount()": "2281"
        }
    }
}