{
    "contractName": "PropertyContract",
    "abi": [
        {
            "inputs": [
                {
                    "internalType": "address",
                    "name": "assembleContractAddr_",
                    "type": "address"
                }
            ],
            "stateMutability": "nonpayable",
            "type": "constructor"
        },
        {
            "inputs": [
                {
                    "internalType": "uint256",
                    "name": "imageId_",
                    "type": "uint256"
                }
            ],
            "name": "_setAttr",
            "outputs": [],
            "stateMutability": "nonpayable",
            "type": "function"
        },
        {
            "inputs": [],
            "name": "assembleContract",
            "outputs": [
                {
                    "internalType": "contract AssembleInterface",
                    "name": "",
                    "type": "address"
                }
            ],
            "stateMutability": "view",
            "type": "function"
        },
        {
            "inputs": [
                {
                    "internalType": "uint256",
                    "name": "imageId_",
                    "type": "uint256"
                }
            ],
            "name": "getAttr",
            "outputs": [
                {
                    "internalType": "uint256[]",
                    "name": "",
                    "type": "uint256[]"
                }
            ],
            "stateMutability": "view",
            "type": "function"
        },
        {
            "inputs": [
                {
                    "internalType": "uint256",
                    "name": "imageId_",
                    "type": "uint256"
                }
            ],
            "name": "getImage",
            "outputs": [
                {
                    "internalType": "string",
                    "name": "",
                    "type": "string"
                }
            ],
            "stateMutability": "view",
            "type": "function"
        },
        {
            "inputs": [
                {
                    "internalType": "address",
                    "name": "newAssembleContractAddr_",
                    "type": "address"
                }
            ],
            "name": "setAssembleContract",
            "outputs": [],
            "stateMutability": "nonpayable",
            "type": "function"
        }
    ],
    "bytecode": "608060405234801561001057600080fd5b5060405161070d38038061070d83398101604081905261002f91610050565b600080546001600160a01b0319166001600160a01b03831617905550610080565b60006020828403121561006257600080fd5b81516001600160a01b038116811461007957600080fd5b9392505050565b61067e8061008f6000396000f3fe608060405234801561001057600080fd5b50600436106100675760003560e01c80633da1f63c116100505780633da1f63c146100ec5780638cb1d64c1461010c578063cdc935681461015157600080fd5b80632303a8311461006c5780632607aafa146100c3575b600080fd5b6100c161007a36600461037f565b600080547fffffffffffffffffffffffff00000000000000000000000000000000000000001673ffffffffffffffffffffffffffffffffffffffff92909216919091179055565b005b6100d66100d1366004610487565b610164565b6040516100e39190610538565b60405180910390f35b6100ff6100fa366004610487565b610242565b6040516100e391906104b9565b60005461012c9073ffffffffffffffffffffffffffffffffffffffff1681565b60405173ffffffffffffffffffffffffffffffffffffffff90911681526020016100e3565b6100c161015f366004610487565b6102a4565b60008054828252600160205260409182902091517faea69a7c00000000000000000000000000000000000000000000000000000000815260609273ffffffffffffffffffffffffffffffffffffffff9092169163aea69a7c916101ca91906004016104fd565b60006040518083038186803b1580156101e257600080fd5b505afa1580156101f6573d6000803e3d6000fd5b505050506040513d6000823e601f3d9081017fffffffffffffffffffffffffffffffffffffffffffffffffffffffffffffffe016820160405261023c91908101906103bc565b92915050565b60008181526001602090815260409182902080548351818402810184019094528084526060939283018282801561029857602002820191906000526020600020905b815481526020019060010190808311610284575b50505050509050919050565b60005b60008054906101000a900473ffffffffffffffffffffffffffffffffffffffff1673ffffffffffffffffffffffffffffffffffffffff166370059d5f6040518163ffffffff1660e01b815260040160206040518083038186803b15801561030d57600080fd5b505afa158015610321573d6000803e3d6000fd5b505050506040513d601f19601f8201168201806040525081019061034591906104a0565b81101561037b57600082815260016020818152604083208054928301815583528220015580610373816105b9565b9150506102a7565b5050565b60006020828403121561039157600080fd5b813573ffffffffffffffffffffffffffffffffffffffff811681146103b557600080fd5b9392505050565b6000602082840312156103ce57600080fd5b815167ffffffffffffffff808211156103e657600080fd5b818401915084601f8301126103fa57600080fd5b81518181111561040c5761040c610619565b604051601f82017fffffffffffffffffffffffffffffffffffffffffffffffffffffffffffffffe0908116603f0116810190838211818310171561045257610452610619565b8160405282815287602084870101111561046b57600080fd5b61047c836020830160208801610589565b979650505050505050565b60006020828403121561049957600080fd5b5035919050565b6000602082840312156104b257600080fd5b5051919050565b6020808252825182820181905260009190848201906040850190845b818110156104f1578351835292840192918401916001016104d5565b50909695505050505050565b6020808252825482820181905260008481528281209092916040850190845b818110156104f15783548352600193840193928501920161051c565b6020815260008251806020840152610557816040850160208701610589565b601f017fffffffffffffffffffffffffffffffffffffffffffffffffffffffffffffffe0169190910160400192915050565b60005b838110156105a457818101518382015260200161058c565b838111156105b3576000848401525b50505050565b60007fffffffffffffffffffffffffffffffffffffffffffffffffffffffffffffffff821415610612577f4e487b7100000000000000000000000000000000000000000000000000000000600052601160045260246000fd5b5060010190565b7f4e487b7100000000000000000000000000000000000000000000000000000000600052604160045260246000fdfea2646970667358221220818261389c616a00fc9e3293b6541a47c10356708cbb813d253b379950bfbf3d64736f6c63430008070033",
    "sourcePath": "/Users/soohanpark/dev/projects/expandable-onchain-SVG-image-storage/Contract/PropertyContract.sol",
    "compiler": {
        "name": "solc",
        "version": "0.8.7+commit.e28d00a7"
    },
    "functionHashes": {
        "_setAttr(uint256)": "cdc93568",
        "assembleContract()": "8cb1d64c",
        "getAttr(uint256)": "3da1f63c",
        "getImage(uint256)": "2607aafa",
        "setAssembleContract(address)": "2303a831"
    },
    "gasEstimates": {
        "creation": {
            "codeDepositCost": "332400",
            "executionCost": "infinite",
            "totalCost": "infinite"
        },
        "external": {
            "_setAttr(uint256)": "infinite",
            "assembleContract()": "2335",
            "getAttr(uint256)": "infinite",
            "getImage(uint256)": "infinite",
            "setAssembleContract(address)": "24486"
        }
    }
}