{
    "contractName": "StorageContract",
    "abi": [
        {
            "inputs": [],
            "stateMutability": "nonpayable",
            "type": "constructor"
        },
        {
            "inputs": [
                {
                    "internalType": "uint256",
                    "name": "assetId_",
                    "type": "uint256"
                }
            ],
            "name": "getAsset",
            "outputs": [
                {
                    "internalType": "string",
                    "name": "",
                    "type": "string"
                }
            ],
            "stateMutability": "view",
            "type": "function"
        },
        {
            "inputs": [
                {
                    "internalType": "uint256",
                    "name": "assetId_",
                    "type": "uint256"
                },
                {
                    "internalType": "string",
                    "name": "assetString_",
                    "type": "string"
                }
            ],
            "name": "setAsset",
            "outputs": [],
            "stateMutability": "nonpayable",
            "type": "function"
        }
    ],
    "bytecode": "608060405234801561001057600080fd5b506103f4806100206000396000f3fe608060405234801561001057600080fd5b50600436106100365760003560e01c8063b77b644a1461003b578063eac8f5b814610050575b600080fd5b61004e6100493660046101ef565b610079565b005b61006361005e3660046101d6565b61009b565b60405161007091906102c8565b60405180910390f35b60008281526020818152604090912082516100969284019061013d565b505050565b60008181526020819052604090208054606091906100b89061033b565b80601f01602080910402602001604051908101604052809291908181526020018280546100e49061033b565b80156101315780601f1061010657610100808354040283529160200191610131565b820191906000526020600020905b81548152906001019060200180831161011457829003601f168201915b50505050509050919050565b8280546101499061033b565b90600052602060002090601f01602090048101928261016b57600085556101b1565b82601f1061018457805160ff19168380011785556101b1565b828001600101855582156101b1579182015b828111156101b1578251825591602001919060010190610196565b506101bd9291506101c1565b5090565b5b808211156101bd57600081556001016101c2565b6000602082840312156101e857600080fd5b5035919050565b6000806040838503121561020257600080fd5b82359150602083013567ffffffffffffffff8082111561022157600080fd5b818501915085601f83011261023557600080fd5b8135818111156102475761024761038f565b604051601f82017fffffffffffffffffffffffffffffffffffffffffffffffffffffffffffffffe0908116603f0116810190838211818310171561028d5761028d61038f565b816040528281528860208487010111156102a657600080fd5b8260208601602083013760006020848301015280955050505050509250929050565b600060208083528351808285015260005b818110156102f5578581018301518582016040015282016102d9565b81811115610307576000604083870101525b50601f017fffffffffffffffffffffffffffffffffffffffffffffffffffffffffffffffe016929092016040019392505050565b600181811c9082168061034f57607f821691505b60208210811415610389577f4e487b7100000000000000000000000000000000000000000000000000000000600052602260045260246000fd5b50919050565b7f4e487b7100000000000000000000000000000000000000000000000000000000600052604160045260246000fdfea2646970667358221220d3e90e140200ad07c38893c7860a0767e2de8255301e2aa9acaf0f1553c13da064736f6c63430008070033",
    "sourcePath": "/Users/soohanpark/dev/projects/expandable-onchain-SVG-image-storage/Contract/StorageContract.sol",
    "compiler": {
        "name": "solc",
        "version": "0.8.7+commit.e28d00a7"
    },
    "functionHashes": {
        "getAsset(uint256)": "eac8f5b8",
        "setAsset(uint256,string)": "b77b644a"
    },
    "gasEstimates": {
        "creation": {
            "codeDepositCost": "202400",
            "executionCost": "245",
            "totalCost": "202645"
        },
        "external": {
            "getAsset(uint256)": "infinite",
            "setAsset(uint256,string)": "infinite"
        }
    }
}